:020000040800F2
:10000000D813002001280008D9260008DB260008A4
:10001000DD260008DF260008E126000800000000B9
:10002000000000000000000000000000E3260008BF
:10003000E526000800000000E7260008E926000881
:1000400025280008292800082D2800083128000844
:1000500035280008F7260008392800083D28000840
:100060004128000845280008492800084D280008B4
:100070005128000855280008592800085D28000864
:100080006128000865280008692800086D28000814
:100090007128000875280008792800087D280008C4
:1000A0008128000885280008892800088D28000874
:1000B0009128000895280008992800089D28000824
:1000C000A1280008A5280008A9280008AD280008D4
:1000D000B128000805270008B5280008F9260008FF
:1000E000B9280008BD280008C1280008C528000854
:1000F000C9280008CD280008D1280008D528000804
:10010000D9280008DD280008FF260008E12800089B
:10011000E5280008E9280008ED280008F128000873
:10012000F5280008F9280008FD2800080129000822
:1001300005290008092900080D29000811290008CF
:1001400015290008192900081D290008212900087F
:1001500025290008292900082D290008312900082F
:1001600035290008392900083D29000841290008DF
:1001700045290008492900084D2900080000000011
:10018000512900085529000800B593B000200090BF
:10019000DFF85C07016841F080510160006800F001
:1001A00080500090009800200090DFF84807016818
:1001B00041F480410160006800F4804000900098A4
:1001C000012006904FF48030079002200C904FF4ED
:1001D00080000D9008200E904FF4A8700F90022020
:1001E00010900720119006A800F0B0FB0F2001909E
:1001F000052102200290002003904FF4A0500490AB
:100200004FF48050059001A800F0ECFC00F090FD48
:1002100000F0B5FD4FF47A71B0FBF1F000F023FE71
:10022000042000F031FE002200214FF0FF3000F0EA
:10023000E4FD13B000BDDFF8C006DFF8C0160161B1
:10024000DFF8BC1641610021816141608160DFF807
:10025000B41601600021C160DFF8AC164163DFF81D
:10026000AC1681630021C1638162C162DFF8A01610
:10027000416200210163704700EE900AF8EEE00A47
:1002800030EE600AF6EE000AB4EE600AF1EE10FA03
:1002900008D5DFED900AB4EE600AF1EE10FAA8BFBF
:1002A0009FEDA10AD1ED040A91ED051AD1ED011AD5
:1002B00091ED062AD1ED022A48688860BDEEC03A69
:1002C00020EE800AF8EEE10A00EEC10AF8EEE20A3A
:1002D00081ED013A00EE820A70470000F0B581B06E
:1002E00000F0F0FDFFF750FF00F034FE00F08FFE4D
:1002F00000F0FCFE00F04CFFFFF79DFF00F0A6FFB2
:1003000000F0F6FF01F064F8DFF80806DFF8E845D2
:100310000168DFF80456CA68DFF80066DFF8007687
:1003200042F00202CA60CA6842F00102CA6040F2AA
:10033000EE224A6340F2D662CA62C2600020A4F88C
:1003400096000FF2E910C4F8DC00FFF774FF0220FA
:10035000A4F84C000120B4F8981000F054FE02E01C
:100360000020A4F8960014213868B0FBF1F101EBED
:100370008102B0EB82000AD1A4F896000A21B4F8F9
:100380004C20012001F0C8F8012084F89400B4F852
:100390009600022804BF30780128E4D194F8940034
:1003A00001280DD17079B17941EA00202064F078FC
:1003B000317941EA00202062206AD4F8D810086020
:1003C0002888801910F8010C2988891911F8021C55
:1003D00041EA0020A4F89A002888811EC9B230465C
:1003E00001F072F8B4F89A108142B9D17078000621
:1003F0007FF5B6AF4FF40071DFF8280501F072FA0F
:100400004FF4FA7000F090FDF4E730B50546DFF8E0
:100410002045A54281B033D1DFF8DC54B5F8960011
:1004200020B14FF6FF7188420CD015E00120A5F8ED
:1004300096000020DFF8E0140880DFF8D80401F00F
:100440006BFA09E04FF40071DFF8D80401F04AFAC2
:100450004FF40040A5F89600DFF8BC04DFF8D41490
:1004600002880B78DFF8B45453550288521C02807E
:100470000020DFF8A024126850620122204620E00C
:10048000DFF8B404854202BFDFF8B0442078AA2820
:100490001CD1E07B2F2811D10D21601C00F0CAFF78
:1004A000A17B884205D0DFF898140020087001B0C5
:1004B00030BDDFF84404D0F8DC008047102221462C
:1004C000284601B0BDE8304001F0D3BD01B030BDD9
:1004D00000000000FEFFFFBEDFF81C04B0F896101D
:1004E000B1F5004F18BF4FF6FF71A0F89610704796
:1004F00010B5DFF80444DFF83404B4F89610B1F511
:10050000004F08D10122202101F0E8F94FF400400A
:10051000A4F8960010BD0022202101F0DFF902208E
:10052000A4F8960010BD000000000000DFF80C34B5
:10053000991C82B000208DF800005B78DFF8000481
:10054000037000238DF80030021D9DF800300C2B45
:1005500080F2348011F8013B02F8013B9DF8003035
:100560005B1C8DF800309DF800300C2B26DA11F85A
:10057000013B02F8013B9DF800305B1C8DF8003018
:100580009DF800300C2B19DA11F8013B02F8013B01
:100590009DF800305B1C8DF800309DF800300C2B6E
:1005A0000CDA11F8013B02F8013B9DF800305B1CAE
:1005B0008DF800309DF800300C2BCBDB0178C91F83
:1005C000032935D8DFE801F002111C29CA49D1F806
:1005D000C82043681360D1F8CC2083681360D1F839
:1005E000D010C068086002B0704790ED010AC248A0
:1005F000D0F8D400B8EE400A80ED000A02B070478F
:10060000BFF34F8FCF48D04A016801F4E061114336
:100610000160BFF34F8F00BFFDE70120B649C1F86D
:10062000A00000224FF40041BF4802B001F056B9CB
:1006300002B0704710B5B04CD4F89C00401CC4F810
:100640009C00D4F8A000012840F0338194ED090A01
:10065000F2EE080A20EE200A84ED2D0A142120680B
:10066000C4F8B000D4F89C00B0FBF1F101EB8102BA
:10067000B0EB820040F01D81206AC4F8BC00D4F8C1
:10068000BC00D4F8C010401AC4F8B8002146D4F811
:10069000BC00C4F8C000D4F8B8000028D4F8B800F2
:1006A00048BF4042C4F8B80094ED2C0AD4F8BC000E
:1006B000FFF7E2FD84ED2A0A94ED2A0AB5EE400A1E
:1006C000F1EE10FA4CBF4FF0FF30012084F8950096
:1006D00094ED2A0AB5EE400AF1EE10FA06D594ED33
:1006E0002A0AB1EE400A84ED2A0A03E0D4F8A800F1
:1006F000C4F8A80094ED2A0AD4ED2D0AB4EE600ADD
:10070000F1EE10FA04DBD4F8B400C4F8AC000DE04C
:1007100094ED2A0AD4F8B80004F12401FFF7ACFDE7
:10072000D4ED2B0A30EE800A84ED2B0ADFED6C0A43
:1007300094ED2B0AB4EE600AF1EE10FA44BF0020EB
:10074000C4F8AC00D4F8BC006528BCBF0020C4F8D5
:10075000AC00D4F8BC0048F6AC218842A4BF00200D
:10076000C4F8AC0094F9950001284BD194ED2B0A04
:10077000F2EE080A80EE200A84ED310ADFED591A04
:1007800094ED310AD4ED290A94ED311A94ED292A19
:10079000F8EEE00A40EE210A9FED530A30EE800A9F
:1007A000BDEEC00A10EE100AB8EEC22A00B201EE89
:1007B000212A00EE100A9FED4C1AB8EEC00AF6EEA0
:1007C000000A32EE011A30EE200AB4EE410A94ED2E
:1007D000310AD4ED290AF8EEE00A40EE210A9FED35
:1007E000420A30EE800ABDEEC00AF1EE10FA10EEB9
:1007F000100AB8BF401CA4F898000120B4F8981063
:1008000000F001FC94F9950010F1010F51D194ED25
:100810002B0AF2EE080A80EE200A84ED310ADFEDA1
:10082000331A94ED310AD4ED290A20EE210AF8EEAC
:10083000E00A30EE600ADFED2C0A30EE200ABDEE51
:10084000C00A94ED311A94ED292A10EE100A21EE17
:10085000211AB8EEC22A00B231EE421A00EE100A96
:100860009FED212AB8EEC00AF6EE000A31EE021A18
:1008700030EE200AB4EE410A94ED310AD4ED290A93
:1008800020EE210AF8EEE00A30EE600ADFED160AEB
:1008900030EE200ABDEEC00AF1EE10FA10EE100A9A
:1008A000B8BF401CA4F898000120B4F8981000F0DC
:1008B000AAFBD4F89C001421B0FBF1F101EB8102FA
:1008C000B0EB820004BFD4F8D80000F0BDFDD4F82E
:1008D0009C00282804BF0020C4F89C0010BD000024
:1008E000010020410000AF43000000470000AFC3FB
:1008F000403802400070004000000020295C8F3D1D
:10090000ACC5273700803B46CDCCCC3D17B751381E
:100910000000F0419803002096030020E40000202E
:10092000D4030020001C02400014024000100240CA
:100930005403002094030020F4020020440300200C
:10094000340300200CED00E00400FA05F8B504467D
:10095000DFF858542078C00747D5A86800F00C008D
:10096000042807D0A86800F00C00082809D168689E
:10097000400206D52868800337D56068A8BB0120EF
:10098000F2BD6068B0F5803F03D1286840F4803044
:1009900010E0B0F5A02F286806D140F48020286030
:1009A000286840F4803005E020F480302860286812
:1009B00020F480202860606858B100F0B2FA064642
:1009C0002868800311D400F0ACFA801B6528F7D3A7
:1009D00004E100F0A6FA06462868800305D500F079
:1009E000A0FA801B6528F7D3F8E02078800718D597
:1009F000A86810F00C0F07D0A86800F00C000828B9
:100A000024D16868400221D42868800702D5E068B4
:100A10000128B4D12868216920F0F80040EAC1001B
:100A20002860207800073DD56169DFF8840361B351
:100A30000121016000F075FA0646686F800731D425
:100A400000F06FFA801B0328F7D3C7E0E068DFF8F7
:100A5000647368B10120386000F063FA06462868C4
:100A60008007D7D400F05DFA801B0328F7D3B5E0E8
:100A7000386000F056FA064628688007D1D500F0A5
:100A800050FA801B0328F7D3A8E0016000F049FA70
:100A90000646686F800705D500F043FA801B0328DF
:100AA000F7D39BE02078400752D500200090DFF874
:100AB0000873286C40F080502864286C00F0805047
:100AC00000900098386840F48070386000F029FA8F
:100AD00006463868C00505D400F023FA801B0328B9
:100AE000F7D37BE0A068012803D1286F40F0010014
:100AF0000FE00528286F06D140F004002867286F12
:100B000040F0010005E0400840002867286F20F011
:100B100004002867A06868B100F003FA064641F2B5
:100B20008937286F800713D400F0FBF9801BB84287
:100B3000F7D353E000F0F5F9064641F28937286F04
:100B4000800705D500F0EDF9801BB842F7D345E0EA
:100B5000A069002844D0A96801F00C0108293FF4DD
:100B60000EAF0228DFF84C722BD10020386600F05F
:100B7000D8F906462868800105D500F0D2F9801B17
:100B80000328F7D32AE0E069216A0843616A40EA52
:100B90008110A16A891EC903090C40EA0140E16A7B
:100BA00040EA016068600120386600F0BAF9064644
:100BB0002868800114D400F0B4F9801B0328F7D30F
:100BC0000CE00020386600F0ACF906462868800189
:100BD00006D500F0A6F9801B0328F7D30320F2BD49
:100BE0000020F2BD2DE9F041744E0446306888467D
:100BF00000F00F00404506D286F80080306800F013
:100C00000F0040456DD12078684F800705D5B86842
:100C1000A16820F0F0000843B8602078C00754D5E0
:100C20006068012802D13968890305E0022818BFED
:100C3000032803D13968890103D452E03968890750
:100C40004FD5B968890840EA8100B86000F069F9B9
:100C50000546606801280CD1B86800F00C00042833
:100C600033D000F05EF9401B41F289318842F3D362
:100C700028E002280CD1B86800F00C00082824D025
:100C800000F04FF9401B41F289318842F3D319E05B
:100C900003280CD1B86800F00C000C2815D000F027
:100CA00040F9401B41F289318842F3D30AE0B86829
:100CB00010F00C0F09D000F034F9401B41F28931DB
:100CC0008842F4D30320BDE8F081306800F00F00C3
:100CD000804509D286F80080306800F00F0040455A
:100CE00002D00120BDE8F0812078400705D5B86822
:100CF000E16820F4E0500843B8602078000706D58A
:100D0000B868216920F4604040EAC100B86000F092
:100D100013F8BA682A49C2F30312515C20FA01F2AF
:100D200028480260002000F0E5F80020BDE8F081CE
:100D300026490120086070472548416801F00C01F0
:100D4000042902D0082902D017E022487047016820
:100D50000268520201F03F014CBF1E4A1E4AB2FB1C
:100D6000F1F102680068C0F30140C2F38812401C30
:100D700051434000B1FBF0F07047174870471148ED
:100D8000006870470F48104A016812681348C2F3A0
:100D9000822206E00B480C4A016812680F48C2F331
:100DA0004232125C21FA02F0704700000038024023
:100DB000800E47420000474200700040003C024065
:100DC000C8260008E0000020083802404C004742D6
:100DD0000438024000127A000024F4001C280008A5
:100DE0002F490A684FF6FF031A4000F0070042EA55
:100DF00000202C4A10430860704730B4284B1B6811
:100E0000C3F30223C3F10704052C28BF0F2404D227
:100E10000124C3F10705AC40641E1D1D072D34BF1E
:100E20000023DB1E21409940012404FA03F35B1EDA
:100E30001A4011430901002807D51B4A00F00F0092
:100E4000801800F8041C30BC7047184A815430BC2C
:100E50007047012100F01F029140154AFFE7400949
:100E600042F820107047401EB0F1807F01D301206E
:100E700070471049104A4860F020107000208860C8
:100E800007200860002070470A49042808680CBF42
:100E900040F0040020F004000860704700000000EB
:100EA0000CED00E00000FA0518ED00E000E400E0C1
:100EB00000E100E010E000E023ED00E080B5FFF786
:100EC000B9FB01BD80B52048016841F400710160A3
:100ED000016841F480610160016841F48071016042
:100EE0000320FFF77DFF002000F004F801F0E4FA92
:100EF000002002BD10B50446144800684FF47A7112
:100F0000B0FBF1F0FFF7AFFF002221464FF0FF30BA
:100F1000FFF773FF002010BD0D480168491C0160F8
:100F200070470B480068704731B5FFF7FAFF009D26
:100F300015F1010F044618BF6D1CFFF7F2FF001BEF
:100F4000A842FAD331BD0000003C0240E00000207E
:100F5000D403002010B586B00020009001220E4876
:100F60000E4C016841F0200101604FF4004100681F
:100F700000F0200000900098204600F0AFFC4FF4F5
:100F80000040019001A90120029000200490204619
:100F900000F0CAFB06B010BD303802400014024019
:100FA000090470B441EA005042EA000148484FF099
:100FB00000520260322200BF521EFCD11822454B63
:100FC000454D4FF400140E0246BF20262E602C60C3
:100FD00020261E604900322600BF761EFCD11C6010
:100FE000322600BF761EFCD1521EECD1322100BF4A
:100FF000491EFCD14FF400510160322000BF401E59
:10100000FCD170BC70470A4601460320C8E770B5A2
:1010100086B0002000904FF400553048304C0168F5
:10102000304E41F001010160016801F001010091C1
:10103000009900210091016841F0020101600168FE
:1010400001F002010091009900210091016841F036
:10105000040101602021006800F004000090009865
:10106000A5611020B06120488161B1610191112119
:101070000291002103910221049101A900F054FB87
:101080002020019001A9304600F04EFB019501A9F6
:10109000204600F049FB1020019001A9304600F0E5
:1010A00043FB4FF48010B0610520FFF73DFF102097
:1010B000B0610520FFF738FF002209210620FFF765
:1010C0006FFF092209210520FFF76AFF06B070BDF6
:1010D000180802401800024018040240303802404C
:1010E000000802400004024000000240254830B5DC
:1010F000254C2060532060604FF6FF750020A060F3
:1011000020618BB0E5600821204600F018FC4FF408
:101110008050079007A9204600F0FFFC3020009087
:1011200001950020029000220820039000A90020D1
:10113000049005900690204600F0C8FC042200A907
:10114000204600F0C3FC0BB030BD80B500680D49EF
:10115000884215D10020009001220C48016841F01E
:10116000080101600021006800F00800009000986C
:101170003220FFF742FEBDE802403220FFF769BE91
:1011800001BD0000000C00409803002040380240E0
:1011900030B587B00020009000222948294D016811
:1011A000294C41F080010160016801F0800100914B
:1011B000009900210091016841F01001016001686F
:1011C00001F010010091009900210091016841F0A7
:1011D000100101604FF40071006800F010000090F1
:1011E0000098284600F07AFB00222021204600F0DB
:1011F00075FB00224021204600F070FB4FF4007088
:10120000019001A90120029002200490284600F0DC
:101210008BFA2020019001A9012002900220049065
:10122000204600F081FA4020019001A9012002909F
:1012300002200490204600F077FA07B030BD00008D
:1012400030380240001C02400010024010B586B049
:1012500000200090484C4948016941F48021016117
:10126000016901F480210091009900210091016839
:1012700041F002010160016801F002010091009952
:1012800000210091016841F08001016001A900681E
:1012900000F08000009000984FF4806001900220E0
:1012A0000290049007200590204600F03DFA4FF48C
:1012B0000060019001A90220029000200390072005
:1012C0000590204600F030FA2D4C00224FF480713A
:1012D000204600F003FB4FF48070019001A901202B
:1012E000029002200490204600F01EFA06B010BDC5
:1012F00010B5FFF7ABFF234C234820604FF4164096
:1013000060600020A060E06020610C20606100202F
:10131000A061E061204600F0DBFD012201212720D1
:10132000FFF76BFD2720FFF794FD00224FF480713B
:10133000134800F0D3FA04F140012046BDE8104004
:10134000012200F096BE70B504460D460C4E0122F7
:101350004FF48071304600F0C1FA4FF6FF732A4611
:101360002146084800F0E2FD3046BDE8704000220A
:101370004FF4807100F0B2BA0004024030380240ED
:10138000001C0240540300200048004048498842A5
:1013900000D0704700B587B0002000904548016834
:1013A00041F00201016001A9006800F00200009014
:1013B0000098C02001900220029001200390032099
:1013C0000490072005903C4800F0AEF907B000BD3E
:1013D00010B582B000200090384C3948016841F0C7
:1013E00010010160006800F010000090009835487E
:1013F00020614FF4E13060610020A061E061206273
:101400000C2060620020A062E06204F1100000F095
:101410005FFD102204F1600104F1100000F029FECC
:10142000022201212520FFF7E8FCBDE81640252017
:10143000FFF70FBD002229B110F8013B9A18491E91
:10144000D2B2F9D11046704738B505461B4C55222B
:101450001021204601F068F828686065A11CAA20C8
:10146000207003228820607094F85400A07094F8D3
:101470005500E07094F85600207194F857006071A0
:1014800088200B7818184B7818188B781818CB7898
:10149000091D1818521EC0B2F3D1A07321462F2087
:1014A000E073102204F11000BDE8384000F0BFBD29
:1014B000F40200203038024000040240E402002020
:1014C000443802400010014070B4FF22FF2359B19C
:1014D0000FF254140FF2500510F8016B5E40735D6B
:1014E0005340325D491EF7D170BC43EA0220704779
:1014F0006070080AA070E170100A20716271062104
:101500002046FFF7E1FFA0710821000AE0712046A4
:10151000BDE81040FFF717BF10B5024C2070032044
:10152000E6E70000E401002000C1814001C08041E5
:1015300001C0804100C1814001C0804100C18140A3
:1015400000C1814001C0804101C0804100C1814093
:1015500000C1814001C0804100C1814001C0804183
:1015600001C0804100C1814001C0804100C1814073
:1015700000C1814001C0804100C1814001C0804163
:1015800001C0804100C1814000C1814001C0804153
:1015900001C0804100C1814001C0804100C1814043
:1015A00000C1814001C0804101C0804100C1814033
:1015B00000C1814001C0804100C1814001C0804123
:1015C00001C0804100C1814000C1814001C0804113
:1015D00001C0804100C1814001C0804100C1814003
:1015E00000C1814001C0804100C1814001C08041F3
:1015F00001C0804100C1814001C0804100C18140E3
:1016000000C1814001C0804101C0804100C18140D2
:1016100000C1814001C0804100C1814001C08041C2
:1016200001C0804100C1814000C0C101C30302C2AA
:10163000C60607C705C5C404CC0C0DCD0FCFCE0E12
:101640000ACACB0BC90908C8D81819D91BDBDA1A82
:101650001EDEDF1FDD1D1CDC14D4D515D71716D6F2
:10166000D21213D311D1D010F03031F133F3F23262
:1016700036F6F737F53534F43CFCFD3DFF3F3EFED2
:10168000FA3A3BFB39F9F83828E8E929EB2B2AEA42
:10169000EE2E2FEF2DEDEC2CE42425E527E7E626B2
:1016A00022E2E323E12120E0A06061A163A3A26222
:1016B00066A6A767A56564A46CACAD6DAF6F6EAE92
:1016C000AA6A6BAB69A9A86878B8B979BB7B7ABA02
:1016D000BE7E7FBF7DBDBC7CB47475B577B7B67672
:1016E00072B2B373B17170B05090915193535292E2
:1016F00096565797559594549C5C5D9D5F9F9E5E52
:101700005A9A9B5B99595898884849894B8B8A4AC1
:101710004E8E8F4F8D4D4C8C448485458747468631
:1017200082424383418180402DE9F84F02460023E5
:101730000024DFF8B891DFF8B8A16E4F4FF00F0E1C
:101740000120D1F800C0984000EA0C08804540F024
:10175000BE804D68022D18BF122D12D1DD0802EB9C
:10176000850C03F00705DCF82060AD000EFA05FBE0
:1017700026EA0B06D1F810B00BFA05F53543CCF884
:10178000205003261568A6406FEA060C0E7906F075
:1017900003060CEA0505A640354315604D68012D8A
:1017A00018BF022D03D0112D18BF122D0FD195682F
:1017B000CE680CEA0505A64035439560556825EAD4
:1017C00000004D68C5F300159D4028435060D06867
:1017D0000CEA0000D1F808C00CFA04FC4CEA000046
:1017E000D0604868C00072D50020009003F0030666
:1017F000386840F4804038604FEA860C386800F45E
:10180000804000900EFA0CF6009898085AF8205084
:10181000B543394EB24208BF002622D0374EB242FD
:1018200008BF01261DD0364EB24208BF022618D08E
:10183000344EB24208BF032613D0334EB24208BF23
:1018400004260ED0314EB24208BF052609D0304ED4
:10185000B24208BF062604D02E4EB2420CBF072665
:10186000082606FA0CFC4CEA05054AF820506FEAF7
:101870000800D9F8005000EA050C4D68ED0348BF98
:1018800048EA0C0CC9F800C0D9F8045000EA050C6D
:101890004D68AD0348BF48EA0C0CC9F804C0D9F83C
:1018A000085000EA050C4D68ED0248BF48EA0C0CF0
:1018B000C9F808C0D9F80CC000EA0C00D1F804C07F
:1018C0005FEA8C2C48BF48EA0000C9F80C005B1C9A
:1018D000A41C102BFFF434AFBDE8F18F02B909044A
:1018E000816170474269514041617047003C01404D
:1018F0000838014044380240000002400004024021
:1019000000080240000C0240001002400014024097
:1019100000180240001C0240022180F839100168C2
:101920000A6842F001020A6004E003D10A68520822
:1019300052000A60012180F839100020704770B50C
:1019400006000C4601D1012070BD06F1380595F95D
:10195000010018B928703046FFF7F7FB02206870C5
:10196000311D306800F0A5F93068016821F00801E8
:101970000160306801682143016001206870002027
:1019800070BD10B5044620680169890716D5C16885
:10199000890713D56FF00201016101212176806969
:1019A00010F0030F204602D000F080F904E0FEF7AB
:1019B00093FD204600F07BF9002020762068016925
:1019C000490716D5C168490713D56FF004010161B5
:1019D00002212176806910F4407F204602D000F079
:1019E00065F904E0FEF778FD204600F060F900207C
:1019F000207620680169090716D5C168090713D543
:101A00006FF00801016104212176C06910F0030F15
:101A1000204602D000F04AF904E0FEF75DFD2046C2
:101A200000F045F90020207620680169C90616D526
:101A3000C168C90613D56FF0100101610821217634
:101A4000C06910F4407F204602D000F02FF904E076
:101A5000FEF742FD204600F02AF90020207620689B
:101A60000169C90708D5C168C90705D56FF001012B
:101A700001612046FEF73CFD20680169090608D592
:101A8000C168090605D56FF080010161204600F0AC
:101A90006AFD20680169490608D5C168490605D56F
:101AA0006FF040010161204600F002F920680169F1
:101AB00089060AD5C168890607D56FF02001016142
:101AC0002046BDE8104000F04DBD10BD10B500F13E
:101AD000380494F90030012B01D1022010BD0123FC
:101AE0002370022363704AB1042A0BD0082A0DD058
:101AF0000C2A04BF006800F0ADF90AE0006800F0AD
:101B000054F906E0006800F020F902E0006800F0F7
:101B100075F90120607000F044B970B400F138022A
:101B200092F90030012B08BF022000F0BC80012395
:101B3000137002235370DFF8685303689C682C40CD
:101B40009C600B68002B00F08E80102B00F09280C0
:101B5000202B00F09680302B00F09A80402B68D02C
:101B6000502B31D0602B49D0702B0BD0B3F5805F58
:101B700003D0B3F5005F16D091E000688168C90812
:101B8000C9008BE0CB684C6805688968AE6826F4AC
:101B90007F463143214341EA0321A96000688168FF
:101BA00041F077017AE0CB684C6805688968AE68D7
:101BB00026F47F463143214341EA0321A9600068AE
:101BC000816841F4804169E0CB684C680168183154
:101BD0008D688E68760876008E600E6826F0F006B6
:101BE00046EA03130B6025F00A0323438B60006869
:101BF000816821F0700141F057014FE0CB684C68DB
:101C0000016818318D6825F010058D600D688E68AB
:101C100025F4704545EA03330B6026F0A00343EA40
:101C200004138B600068816821F0700141F0670146
:101C300034E0CB684C68016818318D688E6876088E
:101C400076008E600E6826F0F00646EA03130B60FD
:101C500025F00A0323438B600068816821F070013E
:101C600041F047011AE00068816821F0700141F0FD
:101C7000070113E00068816821F0700141F017014D
:101C80000CE00068816821F0700141F0270105E057
:101C90000068816821F0700141F037018160012006
:101CA00050700020107070BC704700007047704783
:101CB000704710B47B4A0368904218BFB0F1804F60
:101CC0000BD0794CA0421CBF784CA04205D0784C78
:101CD000A0421CBF774CA04210D14C6823F0700387
:101CE0002343904218BFB0F1804F1BD06E4CA042EE
:101CF0001FBF6E4CA0426E4CA04213D06D4CA04250
:101D00001CBF6D4CA0420DD06C4CA0421CBF6C4C53
:101D1000A04207D06B4CA0421FBF6B4CA0426B4C43
:101D2000A04203D1CC6823F4407323430360904264
:101D30008B68C3620B68836219BF5E4A904209696F
:101D400001630121416110BC704770B4026A22F046
:101D500010020262046A426883690D6823F4E64354
:101D600043EA05238D6824F0200444EA05144D4D10
:101D7000A8421CBF4F4DA8420DD1CD688E6924F0FA
:101D8000800444EA05144D6922F44062354324F08E
:101D9000400442EA8502426083614968816356E0FB
:101DA00000000020207010BD000030B4026A52080C
:101DB00052000262046A426883690D6823F073036B
:101DC0002B438D6824F002042C43364DA8421CBFDF
:101DD000384DA8420BD122F44072CD6824F008049B
:101DE0002C434D692A438D6924F004042A43426040
:101DF000836149684163046230BC704770B4026A11
:101E000022F480720262046A4268C3690D6823F09A
:101E100073032B438D6824F4007444EA0524214D98
:101E2000A8421CBF234DA8420DD1CD688E6924F471
:101E3000006444EA05244D6922F44052354324F4F9
:101E4000806442EA05124260C3614968C16304626A
:101E500070BC704730B4026A22F480520262026A97
:101E60004368C4690D6824F4E64444EA05248D6897
:101E700022F4005242EA05320A4DA8421CBF0D4D21
:101E8000A84204D14D6923F4804343EA851343609B
:101E9000C46149680164026230BC70470000000000
:101EA0008800FFFF000001400004004000080040DF
:101EB000000C00400004014000400140004401408B
:101EC0000048014000180040001C00400020004075
:101ED00038B5050001D1012032BD05F13804607824
:101EE00018B920702846FFF751FA2420607028683E
:101EF000C16821F40051C160284600F0E4F9286867
:101F0000016921F4904101612868416921F02A01A9
:101F1000FFE741612868C16841F40051C1600020B9
:101F2000606020206070A070002032BD2DE9F84371
:101F3000044604F138050E466878202890461F466E
:101F40006FD1002E14BFB8F1000F01206AD095F9AF
:101F50000000012865D00120287000206860212041
:101F60006870FEF7DEFFA4F824808146A4F826807E
:101F700002E016F8011B4160E08C70B3E08C401E5B
:101F8000E084A068B0F5805F18D120680168090678
:101F90000AD417F1010FF8D06FB3FEF7C2FFA0EB20
:101FA00009008742F1D226E03188C905C90D416098
:101FB0002069002814BF761CB61CDDE72068016884
:101FC0000906D6D417F1010FF8D0A7B1FEF7A9FF83
:101FD000A0EB09008742F1D20DE0206800684006BE
:101FE00019D417F1010FF8D02FB1FEF79AFFA0EB2B
:101FF00009008742F1D22068C16821F4D071C16024
:102000002068416949084900416120206870A87032
:102010000020287008E02020687000202870BDE8AB
:10202000F2830220BDE8F2830320BDE8F28310B4FE
:1020300000F138035C78202C18D1002914BF002A45
:10204000012014D093F90040012C0FD001241C7002
:1020500001628284C28400215960212159700021CB
:1020600019700068C16841F0800129E0022010BCAD
:10207000704710B400F138039C78202C1DD1002942
:1020800014BF002A012019D093F90040012C14D06C
:1020900001241C7081628285C28500215960222141
:1020A00099700021197001684A6942F001024A6181
:1020B0000068C16841F4907102E0022010BC7047D2
:1020C000C160002010BC704738B50446236818680A
:1020D000D9685A6910F00F0F07D1820669D58A06B0
:1020E00067D52046BDE83240AAE0D50702D411F4F6
:1020F000907F5ED0C30705D5CB0503D5E36B43F0D6
:102100000103E363430705D5D30703D5E36B43F02E
:102110000203E363830705D5D30703D5E36B43F0DD
:102120000403E363030705D5D20703D5E26B42F04E
:102130000802E263E26B002A76D0800604D58806A6
:1021400044BF204600F07CF820684169E26B12072A
:1021500001D4490627D5C16821F49071C160206877
:102160004169490849004161202004F13901487062
:1021700020684169490612D5416921F04001416159
:10218000606B60B10FF2A9010165606B00F0ECF9C2
:10219000002849D0606B016DBDE8344008472046F7
:1021A00000F044F831BD204600F040F80020E06324
:1021B00031BD02062AD50A0628D594F8390021280F
:1021C00032D1A068B0F5805F206A0BD10088C005CD
:1021D000C00D586020690028206A0CBF801C401C7C
:1021E000206203E0411C216200785860E08C401EB0
:1021F000E08480B2C0B92068C16821F08001C1606C
:102200002068C16841F04001C16031BD40060BD576
:10221000480609D5D86820F04000D860202084F80E
:102220003900204600F001F831BD704770470000CA
:1022300080B5806B0021C185C184FFF7F7FF01BD28
:1022400080B590F83A1022293BD18168B1F5805FC2
:1022500011D10269816A002A0268526805D1D2054B
:10226000D20D0A80816A891C03E0D2B20A80816A99
:10227000491C81620FE001690029816A04D14A1C6E
:1022800082620268526805E04A1C826202685268F3
:1022900002F07F020A70C18D491EC18589B271B9F1
:1022A0000168CA6822F49072CA6001684A695208DB
:1022B00052004A61202180F83A10FEF7A6F800206B
:1022C00002BD022002BD2DE9F041044620680169EB
:1022D000E26821F4405111430161744AC168114020
:1022E000A26811432269114362691143E2691143F3
:1022F000C1604169A26921F4407111434161E26901
:102300006B49B2F5004F7CD188421CBF69498842B5
:102310003BD1FEF73FFD0546FEF73CFD0646FEF7C6
:1023200039FD0746FEF736FD8046FEF733FD61684E
:102330001922574356434B00B7FBF3F7B6FBF3F6AE
:1023400055436421B7FBF1F701FB1766F6003236FF
:10235000B6FBF1F6B5FBF3F506F0F806B5FBF1F5C3
:10236000760006EB0515504302FB08F6B0FBF3F0D0
:10237000B6FBF3F6B0FBF1F001FB1060C0003230A9
:10238000B0FBF1F000F0070089E0FEF7FBFC05462A
:10239000FEF7F8FC0646FEF7F5FC0746FEF7F2FCF2
:1023A0008046FEF7EFFC61681922574356434B0005
:1023B000B7FBF3F7B6FBF3F655436421B7FBF1F730
:1023C00001FB1766F6003236B6FBF1F6B5FBF3F506
:1023D00006F0F806B5FBF1F5760006EB051550435F
:1023E00002FB08F6B0FBF3F0B6FBF3F6B0FBF1F03E
:1023F00001FB1060C0003230B0FBF1F000F00700CC
:102400004DE088421CBF2B4988420ED1FEF7C2FC2A
:102410000546FEF7BFFC0646FEF7BCFC0746FEF786
:10242000B9FC8046FEF7B6FC0DE0FEF7ABFC0546B6
:10243000FEF7A8FC0646FEF7A5FC0746FEF7A2FC41
:102440008046FEF79FFC61681922574356438B0074
:10245000B7FBF3F7B6FBF3F655436421B7FBF1F78F
:1024600001FB176636013236B5FBF3F5B6FBF1F624
:10247000B5FBF1F506F0F00606EB0515504302FB3F
:1024800008F6B0FBF3F0B6FBF3F6B0FBF1F001FB9E
:10249000106000013230B0FBF1F000F00F00216855
:1024A00040198860BDE8F08100000000F369FFFF7B
:1024B000001001400014014080B50320FEF790FC9D
:1024C000002200216FF00B00FEF797FC002211465E
:1024D0006FF00A00FEF791FC002211466FF0090030
:1024E000FEF78BFC002211466FF00400FEF785FC1E
:1024F000002211466FF00300FEF77FFC0022114618
:102500006FF00100FEF779FC002211464FF0FF301A
:10251000FEF773FC002211460520FEF76EFCBDE8B5
:1025200002400520FEF795BC62F30F2262F31F42C2
:1025300000B500BF130096469446103928BFA0E8A6
:102540000C50FAD85FEA417C28BF0CC048BF40F865
:10255000042BC90728BF20F8022B48BF00F8012B25
:1025600000BD00007047704790F93510022903D074
:102570008021416501207047052180F835100068F1
:10258000016849084900016000207047816807E040
:1025900002681168536889185B18C36008320260CA
:1025A000C2689142F4D04A1C8260087870472DE9D5
:1025B000FF4D00F10801009100270268520801EB6D
:1025C000C2010191B84600210291039101684908B6
:1025D00000EBC101406800F0010501F1080440086A
:1025E00004EBC00630E000A8FFF7D0FF4FFA80FAF6
:1025F0000AE00098016808180099029049680818D4
:102600000390009808300090029803998842F0D017
:1026100010F801BB029047450CD1B44208BF00F04E
:102620001DF8276805B14F44606800EB07080834BF
:102630004745F2D0BAF1000F07F801BB0AD51AF1ED
:10264000010AE8D14745CED1B442CCD1304604B0DE
:10265000BDE8F08DBAF1010AD6D5F3E7012000F00C
:1026600001B8000080B5C046C046024A11001820DB
:10267000ABBEFBE7260002000E480F4A016841F49A
:10268000700101600D48016841F001010160002105
:10269000816001681140016009494160016821F4CD
:1026A000802101600021C1604FF000600549086091
:1026B0007047000088ED00E0FFFFF6FE00380240A2
:1026C0001030002408ED00E00000000000000000D1
:1026D00001020304060708097047FEE7FEE7FEE76C
:1026E000FEE770477047704780B5FEF715FCBDE800
:1026F0000140FEF7E3BB70470448FFF7E5BC044820
:10270000FFF73FB90348FFF7DFBC00005403002088
:1027100098030020F402002019E050F8041BCB07B6
:1027200044BFA9F101035918121F0023042A41F8DC
:10273000043BF9D25FEA827C0B4604D54FF0000CD3
:10274000A1F800C09B1CD10744BF0021197050F8AC
:10275000042B002AE1D1704710B50749794418319C
:10276000064C7C44163404E00A68081D511888475A
:102770000146A142F8D110BD2C0000005400000019
:102780004EF68851CEF20001086840F470000860EF
:10279000BFF34F8FBFF36F8F4FF00070E1EE100A61
:1027A0007047000075FFFFFFF4020000E400002006
:1027B00000000000FBFDFFFF02000000020000001F
:1027C000980100002800000000000020E400000044
:1027D00000F00BF8002801D0FFF7BEFF0020C04634
:1027E000C046FDF77BFD00F002F80120704700F0C5
:1027F00001B8000007463846FFF734FFFBE700004A
:102800000148804701480047792600081128000840
:10281000C046C046FFF7B4FFFFF7DAFF0000000034
:1028200001020304FFF7FEBFFFF7FEBFFFF7FEBF85
:10283000FFF7FEBFFFF7FEBFFFF7FEBFFFF7FEBFCC
:10284000FFF7FEBFFFF7FEBFFFF7FEBFFFF7FEBFBC
:10285000FFF7FEBFFFF7FEBFFFF7FEBFFFF7FEBFAC
:10286000FFF7FEBFFFF7FEBFFFF7FEBFFFF7FEBF9C
:10287000FFF7FEBFFFF7FEBFFFF7FEBFFFF7FEBF8C
:10288000FFF7FEBFFFF7FEBFFFF7FEBFFFF7FEBF7C
:10289000FFF7FEBFFFF7FEBFFFF7FEBFFFF7FEBF6C
:1028A000FFF7FEBFFFF7FEBFFFF7FEBFFFF7FEBF5C
:1028B000FFF7FEBFFFF7FEBFFFF7FEBFFFF7FEBF4C
:1028C000FFF7FEBFFFF7FEBFFFF7FEBFFFF7FEBF3C
:1028D000FFF7FEBFFFF7FEBFFFF7FEBFFFF7FEBF2C
:1028E000FFF7FEBFFFF7FEBFFFF7FEBFFFF7FEBF1C
:1028F000FFF7FEBFFFF7FEBFFFF7FEBFFFF7FEBF0C
:10290000FFF7FEBFFFF7FEBFFFF7FEBFFFF7FEBFFB
:10291000FFF7FEBFFFF7FEBFFFF7FEBFFFF7FEBFEB
:10292000FFF7FEBFFFF7FEBFFFF7FEBFFFF7FEBFDB
:10293000FFF7FEBFFFF7FEBFFFF7FEBFFFF7FEBFCB
:10294000FFF7FEBFFFF7FEBFFFF7FEBFFFF7FEBFBB
:10295000FFF7FEBFFFF7FEBF8100E6000080F60034
:1029600001280ADE000B10000020140000201800CF
:102970000020FD00042020000020FB000224F400C1
:0400000508002811B6
:00000001FF
