:020000040800F2
:10000000D81300209D010008431D0008511A000864
:10001000411D0008B1030008C527000800000000CA
:10002000000000000000000000000000411E000869
:10003000CD03000800000000451D00085D1E0008FB
:10004000B7010008B7010008B7010008B7010008B0
:10005000B7010008471D0008B7010008B7010008F4
:10006000B7010008B7010008B7010008B701000890
:10007000B7010008B7010008B7010008B701000880
:10008000B7010008B7010008B7010008B701000870
:10009000B7010008B7010008B7010008B701000860
:1000A000B7010008B7010008B7010008B701000850
:1000B000B7010008B7010008B7010008B701000840
:1000C000B7010008B7010008B7010008B701000830
:1000D000B7010008AD270008B7010008B9270008DC
:1000E000B7010008B7010008B7010008B701000810
:1000F000B7010008B7010008B7010008B701000800
:10010000B7010008B7010008611F0008B701000827
:10011000B7010008B7010008B7010008B7010008DF
:10012000B7010008B7010008B7010008B7010008CF
:10013000B7010008B7010008B7010008B7010008BF
:10014000B7010008B7010008B7010008B7010008AF
:10015000B7010008B7010008B7010008B70100089F
:10016000B7010008B7010008B7010008B70100088F
:10017000B7010008B7010008B7010008000000003F
:10018000B7010008B7010008DFF80CD000F018F83C
:1001900000480047F5270008D8130020064880478C
:1001A00006480047FEE7FEE7FEE7FEE7FEE7FEE75C
:1001B000FEE7FEE7FEE7FEE7091F000889010008E9
:1001C000064C074D06E0E06840F0010394E80700A4
:1001D00098471034AC42F6D3FFF7DAFF5C2B0008E7
:1001E0007C2B000810B501F025FD0A4C4FF480105F
:1001F0002060052000F02EF910202060052000F07E
:1002000029F900F010F80121BDE81040084600F07F
:1002100003B800001804024040EAC100C2B209213C
:10022000052000F005B8002209210620AFF3008068
:100230002DE9F047000540EA014040EA0205DFF8F9
:1002400058A04FF00050CAF8000002F0CBFA00248A
:10025000124FDFF84C9020264FF4001815F4000FD1
:1002600001D03E6001E0C7F80080C9F818606D0059
:1002700002F0B8FAC9F8188002F0B4FA601CC4B2EF
:10028000182CEBD302F0AEFA4FF40050CAF800007D
:10029000BDE8F04702F0A6BA180802401804024070
:1002A000000002400A4601460320FFF7C1BF0000DC
:1002B00082B000220192DFF8A0C00CF10200274BAF
:1002C000191D9CF801C083F800C001929DF804201C
:1002D0000C2A0BD210F8012B01F8012B9DF80420F9
:1002E000521C01929DF804200C2AF3D318781C4963
:1002F000072808D0082817D009281FD00A2811D1AC
:1003000002B001F09FBD486B93ED010A80ED000A39
:10031000886B93ED020A80ED000AC86B93ED030A27
:1003200080ED000A02B07047586800EE100A086CB1
:10033000B8EE400A80ED000A02B07047BFF34F8F5D
:1003400008480168084A01F4E06111430160BFF305
:100350004F8F00BFFDE700006801002088010020EA
:10036000000000200CED00E00400FA0530B587B075
:1003700000240D48016841F020010160006800F090
:1003800020000190094D0122D103284600F076F9A2
:100390004FF40041029101210391059402A92846DE
:1003A00000F068F807B030BD303802400014024059
:1003B000FEE700234A1ED2B206D301781944CBB21D
:1003C000401C521ED2B2F8D2184670477047000047
:1003D00030B58DB0154814490160532141600024A7
:1003E00084604FF6FF75C5600461082101F0C2F812
:1003F0004FF48050089008A90C4800F03CFF3020D2
:1004000001900295039408200490059406940794A3
:10041000002201A9054801F071F8042201A903484E
:1004200001F06CF80DB030BD000C0040EC00002075
:1004300090F83510022903D08021416501207047D2
:10044000052180F835100068016821F00101016084
:100450000020704731B500F019F90546009CB4F151
:10046000FF3F00D0641C00F011F9401BA042FAD3FA
:1004700038BD00002DE9F84F0022DFF8E481DFF8F5
:10048000E491DFF8E4A14FF0030E0F27012303FAF4
:1004900002F50B682B40AB427ED1D1F804C0BCF111
:1004A000020F02D0BCF1120F12D14FEAD20C00EBB6
:1004B0008C0CDCF820605407E40E07FA04FB26EAF3
:1004C0000B06D1F810B00BFA04F43443CCF82040FA
:1004D00006684FEA420C0EFA0CF4A64391F804B0F9
:1004E0000BF0030B0BFA0CFB4BEA060606604E689A
:1004F000012E05D0022E03D0112E01D0122E11D1C3
:100500008668A643D1F80CB00BFA0CFB4BEA060642
:100510008660466826EA05050E79C6F30016964001
:1005200035434560C56825EA04048D6805FA0CFC6E
:100530004CEA040CC0F80CC0D1F804C01CF0805F79
:100540006FD0D8F800C04CF4804CC8F800C0D8F880
:1005500000C00CF4804CCDF800C022F0030C0CF16C
:10056000804404F59834D4F808C895072D0F07FA8D
:1005700005F62CEA0606A0F1804CBCF5003C56D0EE
:10058000BCF5806C56D0BCF5806C56D0BCF5806C48
:1005900056D0BCF5806C00E043E054D0BCF5806CD4
:1005A00054D0BCF5806C54D0BCF5806C54D04FF066
:1005B000080C0CFA05FC4CEA060CC4F808C8D9F87B
:1005C00000C02CEA030C4C6814F4803F01D04CEAC4
:1005D000030CC9F800C0254CD4F800C02CEA030C69
:1005E0004D6815F4003F01D04CEA030CC4F800C07C
:1005F000DAF800C02CEA030C4C6814F4801F01D018
:100600004CEA030CCAF800C0194CD4F800C02CEA1C
:10061000030C4D6815F4001F01D04CEA030CC4F81C
:1006200000C0521C102AFFF431AFBDE8F88F4FF024
:10063000000CBEE74FF0010CBBE74FF0020CB8E72F
:100640004FF0030CB5E74FF0040CB2E74FF0050C88
:10065000AFE74FF0060CACE74FF0070CA9E700003E
:1006600044380240003C0140083C0140043C014049
:100670000C3C01404269514041617047002A01D061
:10068000816170470904816170470000014800687A
:10069000704700004C00002002480168491C0160BE
:1006A000704700004C00002010B50B48016841F471
:1006B00000710160016841F480610160016841F4EA
:1006C00080710160032000F091F8002000F006F82E
:1006D00000F018F8002010BD003C024010B50446A0
:1006E00007484FF47A720068B0FBF2F000F09CFD0E
:1006F00000222146501E00F045F8002010BD0000E9
:100700005000002010B5032000F070F800221146C0
:100710006FF00B0000F036F8002211466FF00A006F
:1007200000F030F8002211466FF0090000F02AF8BE
:1007300000221146501F00F025F800221146101F1C
:1007400000F020F800221146901E00F01BF8002255
:100750001146501E00F016F800221146052000F048
:1007600011F8BDE810400520AFF3008000F01F0134
:10077000012202FA01F14009800000F1E020C0F8F6
:100780000011704710B4184B1B68C3F30223C3F168
:10079000070CBCF1040F01D94FF0040C1C1D072CF1
:1007A00001D2002300E0DB1E012404FA0CFCACF1B2
:1007B000010C0CEA0101994004FA03F35B1E1A4094
:1007C0001143002808DA00F00F0000F1E0200901D1
:1007D00080F8141D10BC704700F1E020090180F87A
:1007E000001410BC704700000CED00E000F00700A2
:1007F000064A11684FF6FF03194041EA002040F015
:10080000FD7040F080601060704700000CED00E06B
:100810002DE9F05F04460E46DFF8D091D9F80000CC
:10082000F7B200F00F00B0420AD289F80070D9F890
:10083000000000F00F00B04202D00120BDE8F09FA0
:100840002078DFF8AC8110F0020F07D0D8F8000054
:10085000A16820F0F0000843C8F80000207810F0EC
:10086000010F51D060686349012808D002280DD0DB
:1008700003280BD0096811F0020F2ED00AE0096896
:1008800011F4003F06D10120BDE8F09F096811F086
:10089000007F1FD0D8F8001021F003010843C8F8EA
:1008A0000000FFF7F3FE0546606841F2883A012830
:1008B00016D0022829D003283CD0D8F8000010F028
:1008C0000C0F51D0FFF7E2FE401B504547D90320E3
:1008D000BDE8F09F0120BDE8F09F0120BDE8F09F3A
:1008E000D8F8000000F00C0004283DD0FFF7CEFE41
:1008F000401B504502D90320BDE8F09FD8F8000006
:1009000000F00C000428F1D12EE0D8F8000000F02F
:100910000C00082828D0FFF7B9FE401B504502D92B
:100920000320BDE8F09FD8F8000000F00C00082874
:10093000F1D119E0D8F800004FF00C0B3BEA0000B1
:1009400012D0FFF7A3FE401B504502D90320BDE89B
:10095000F09FD8F800003BEA0000F2D104E0D8F89C
:10096000000010F00C0FADD1D9F8000000F00F001E
:10097000B0420AD989F80070D9F8000000F00F00E1
:10098000B04202D00120BDE8F09F207810F0040FA3
:1009900007D0D8F80000E16820F4E0500843C8F818
:1009A0000000207810F0080F08D0D8F80000216966
:1009B00020F4604040EAC100C8F8000000F058F898
:1009C000D8F80010F02292FAA2F201F0F001B2FA87
:1009D00082F2D140084A515CC840084908600020B2
:1009E000FFF77CFE0020BDE8F09F0000003C0240C5
:1009F0000838024000380240442900085000002016
:100A000001490120C864704700004742014800685E
:100A1000704700005000002000B5FFF7F7FF0749BE
:100A200009684FF4E05292FAA2F201F4E051B2FAEE
:100A300082F2D140024A515CC84000BD08380240F1
:100A40005429000800B5FFF7E1FF074909684FF492
:100A5000604292FAA2F201F46041B2FA82F2D1400D
:100A6000024A515CC84000BD0838024054290008C1
:100A700010B41F48006810F00C011E481BD04FEA4C
:100A8000600C042916D0082915D11B4A116801F001
:100A90003F01136813F4800F47F6C0730DD0BCFB01
:100AA000F1F01168194093FAA3F3B3FA83F3D94034
:100AB00048430CE0604610BC7047B0FBF1F0116891
:100AC000194093FAA3F3B3FA83F3D940484311686A
:100AD0004FF4403292FAA2F201F44031B2FA82F2BB
:100AE000D140491C4900B0FBF1F010BC7047000038
:100AF000083802400024F400043802402DE9F84F81
:100B00000446DFF81C842078A8F1040710F0010FD8
:100B1000A7F1040560D0D8F8000000F00C0004280C
:100B200009D0D8F8000000F00C0008280DD1386872
:100B300010F4800F09D0286810F4003F4CD0606892
:100B4000002849D10120BDE8F88F6068B0F5803FEA
:100B500014D0B0F5A02F16D0286820F4803028607B
:100B6000286820F480202860606810B3FFF78EFDAD
:100B70000646286810F4003F0ED02DE0286840F4A7
:100B800080302860F0E7286840F4802028602868DA
:100B900040F480302860E7E7FFF778FD801B642889
:100BA00002D90320BDE8F88F286810F4003FF3D085
:100BB00012E0FFF76BFD0646286810F4003F0BD0EB
:100BC000FFF764FD801B642802D90320BDE8F88F7D
:100BD000286810F4003FF3D12078DFF8489310F034
:100BE000020F4FF0000663D0D8F800004FF0F80B6A
:100BF00010F00C0F16D0D8F8000000F00C000828F8
:100C000003D1386810F4800F0CD0E068C8B301201D
:100C1000C9F80000FFF73AFD8246286810F0020F7D
:100C200016D022E0286810F0020F05D0E0680128F5
:100C300002D00120BDE8F88F28689BFAABF2216949
:100C4000B2FA82F220F0F8009140084328602FE0C9
:100C5000FFF71CFDA0EB0A00022802D90320BDE823
:100C6000F88F286810F0020FF2D028689BFAABF2D8
:100C70002169B2FA82F220F0F8009140084328601E
:100C800016E0FFE7C9F80060FFF700FD824628681C
:100C900010F0020F0CD0FFF7F9FCA0EB0A000228BD
:100CA00002D90320BDE8F88F286810F0020FF2D1B6
:100CB000207810F0080F34D09B48DFF870B26169DB
:100CC000C1B101210160FFF7E1FC8246DBF80000C1
:100CD00010F0020F25D1FFF7D9FCA0EB0A00022883
:100CE00002D90320BDE8F88FDBF8000010F0020FF6
:100CF000F1D016E00660FFF7C9FC8246DBF8000081
:100D000010F0020F0DD0FFF7C1FCA0EB0A00022883
:100D100002D90320BDE8F88FDBF8000010F0020FC5
:100D2000F1D1207810F0040F43D08148016841F0E0
:100D300080510160006800F080500090DFF8F4B14D
:100D4000DBF8000040F48070CBF80000FFF79EFC59
:100D50008246DBF8000010F4807F0DD1FFF796FC8F
:100D6000A0EB0A00022802D90320BDE8F88FDBF8C7
:100D7000000010F4807FF1D0A068DFF8BCB101283A
:100D800018D005281DD0DBF8000020F00100CBF8BA
:100D90000000DBF8000020F00400CBF80000A068A1
:100DA00068B3FFF773FC8246DBF8000010F0020F17
:100DB00014D03CE0DBF8000040F00100CBF800006C
:100DC000EDE7DBF8000040F00400CBF80000DBF8B2
:100DD000000040F00100CBF80000E0E7FFF756FC10
:100DE000A0EB0A0141F28830814202D90320BDE81C
:100DF000F88FDBF8000010F0020FEFD017E0FFF7DC
:100E000045FC8246DBF8000010F0020F0FD0FFF720
:100E10003DFCA0EB0A0141F28830814202D9032057
:100E2000BDE8F88FDBF8000010F0020FEFD1A069E9
:100E3000F0B3D8F8001001F00C0108296CD002289A
:100E400010D0C9F86060FFF721FC0446286810F054
:100E5000007F5ED0FFF71AFC001B022855D9032043
:100E6000BDE8F88FC9F86060FFF710FC06462868F7
:100E700010F0007F0BD0FFF709FC801B022802D97D
:100E80000320BDE8F88F286810F0007FF3D1216AB5
:100E9000E0694FF0FF3340EA010247F6C07191FA72
:100EA000A1F1606AB1FA81F100FA01F1A06A00E0F3
:100EB0002FE003EB50004FF4403393FAA3F3B3FA5F
:100EC00083F39840084310434FF0706292FAA2F205
:100ED000E16AB2FA82F29140084338600120C9F811
:100EE0006000FFF7D3FB0446286810F0007F10D1A4
:100EF000FFF7CCFB001B022802D90320BDE8F88FC6
:100F0000286810F0007FF3D003E0286810F0007F1D
:100F1000A0D10020BDE8F88F0120BDE8F88F0000C7
:100F20000838024000004742800E474274380240B1
:100F30004038024000700040703802404FF0E0211D
:100F4000042804D0086920F004000861704708698B
:100F500040F004000861704770B52DED048BA94C7A
:100F6000A068401CA060E068A74D012840F03581D2
:100F7000A648B2EE089A90ED000A20EE090A84ED28
:100F8000080AA0F1240292ED000A84ED070AA06885
:100F9000A5FB00310909494201EB810110EB8100F9
:100FA00040F01B81106AA062A06AE16A401A606288
:100FB000A06AE062606A002802DA606A404200E0EB
:100FC000606A6062924994ED070AA06A00F042FDEF
:100FD00084ED050A94ED050AB5EEC00AF1EE10FAAB
:100FE00002D24FF0FF3000E00120607094ED050A5E
:100FF000B5EEC00AF1EE10FA04D294ED050AB1EE96
:10100000400A01E094ED050A84ED050A94ED050A15
:10101000D4ED080AB4EEE00AF1EE10FA04DB94ED28
:10102000080A84ED060A0BE0784994ED050A606A27
:1010300000F010FDD4ED060A30EE200A84ED060A19
:1010400094ED060A734910EE100A9FED730A884268
:1010500001DC84ED060AA06A642801DC84ED060A3E
:10106000A06A48F6AC21884201DB84ED060A60786C
:10107000F6EE008A9FED698A012854D194ED060AA4
:10108000C0EE090AC4ED0C0A206994ED0C1A00EEBA
:10109000100AF8EEC00A9FED620A41EE000A70EEF7
:1010A000880AFDEEE00A10EE900A00B200EE900A07
:1010B0002069F8EEE00A30EEA81A00EE900AD4EDAE
:1010C0000C1AF8EEE00A41EE800A70EE880AB4EEDF
:1010D000E01AF1EE10FA10DB206994ED0C1A00EE24
:1010E000900AF8EEE00A41EE000A30EE880ABDEE02
:1010F000C00A10EE100A00B20FE0206994ED0C1A3D
:1011000000EE900AF8EEE00A41EE000A30EE880A9E
:10111000BCEEC00A10EE100A401CA080A08881B26C
:101120000120FFF7BFF894F90100B0F1FF3F54D15F
:1011300094ED060AC0EE090AC4ED0C0A206994ED8C
:101140000C1A00EE100AF8EEC00A9FED360A51EEB6
:10115000000A70EE880AFDEEE00A10EE900A00B276
:1011600000EE900A2069F8EEE00A30EEA81A00EED0
:10117000900AD4ED0C1AF8EEE00A51EE800A70EEF7
:10118000880AB4EEE01AF1EE10FA10DB206994ED53
:101190000C1A00EE900AF8EEE00A51EE000A30EE6A
:1011A000880ABDEEC00A10EE100A00B20FE02069F6
:1011B00094ED0C1A00EE900AF8EEE00A51EE000AE7
:1011C00030EE880ABCEEC00A10EE100A401CA08067
:1011D000A08881B20120FFF765F8A068A5FB002177
:1011E0000909494201EB810110EB810002D1606CD9
:1011F00001F016F8A068282801D10020A060BDECFD
:10120000048B70BD00000020CDCCCCCC7C00002035
:1012100058000020000020410000000000000047AE
:101220000000AF430000AFC3401EB0F1807F01D388
:10123000012070474FF0E0214861044AF02010700F
:1012400000208861072008610020704723ED00E03E
:1012500010B5FFF781FE10BD70477047022180F87E
:10126000391001680A6842F001020A60012180F821
:1012700039100020704770B5044694F838000128F2
:1012800018D0012584F83850022084F839002068ED
:10129000826822F0770222F47F4282600868502838
:1012A0003AD00EDC20285FD006DC002852D010286F
:1012B00063D154E0022070BD30285AD040285CD160
:1012C0003EE0602832D070280CD0B0F5805F03D0AB
:1012D000B0F5005F51D113E02068816821F007016B
:1012E00081604AE0CB684A688968206800F098FE0F
:1012F0002068816821F0770141F0770181603CE04E
:10130000CB684A688968206800F08AFE2068816896
:1013100041F48041816030E0CA684968206800F08B
:101320005AFF5021206800F086FE26E0CA6849680E
:10133000206800F063FF6021206800F07CFE1CE064
:10134000CA684968206800F046FF4021206800F024
:1013500072FE12E00021206800F06DFE0DE0102109
:10136000206800F068FE08E02021206800F063FE9D
:1013700003E03021206800F05EFE84F83950002040
:1013800084F8380070BD704770B504462068016964
:101390004FF0000511F0020F17D0C16811F0020FD5
:1013A00013D0E91E0161012020762068806910F0C9
:1013B000030F03D02046FFF7E6FF05E0204600F0CC
:1013C000C9F8204600F01AF925762068016911F065
:1013D000040F18D0C16811F0040F14D06FF004018D
:1013E0000161022020762068806910F4407F03D0DC
:1013F0002046FFF7C8FF05E0204600F0ABF8204686
:1014000000F0FCF825762068016911F0080F18D06B
:10141000C16811F0080F14D06FF0080101610420B9
:1014200020762068C06910F0030F03D02046FFF734
:10143000AAFF05E0204600F08DF8204600F0DEF817
:1014400025762068016911F0100F18D0C16811F0DD
:10145000100F14D06FF01001016108202076206871
:10146000C06910F4407F03D02046FFF78CFF05E0F1
:10147000204600F06FF8204600F0C0F8257620687E
:10148000016911F0010F09D0C16811F0010F05D0F9
:101490006FF001010161204600F0B2F82068016997
:1014A00011F0800F09D0C16811F0800F05D06FF0E6
:1014B000800101612046FFF7CFFE2068016911F02D
:1014C000400F09D0C16811F0400F05D06FF0400106
:1014D0000161204600F0AEF82068016911F0200F8C
:1014E0000BD0C16811F0200F07D06FF0200101610F
:1014F0002046BDE87040FFF7B0BE70BD70B5044631
:1015000094F8380001280DD0012584F838500220C5
:1015100084F8390042B1042A0AD0082A0CD00C2AD7
:1015200011D10DE0022070BD206800F08CFD0AE0B2
:10153000206800F0BAFD06E0206800F0ECFD02E053
:10154000206800F01EFE84F83950002084F838002E
:1015500070BD000006484188B1F5004F03D04FF63A
:10156000FF71418070474FF4004141807047000097
:101570000000002070B504460D46002C03D094F8FE
:10158000390010B107E0012070BD002084F8380058
:10159000204600F015F8022084F83900211D20684B
:1015A00000F0E4FC2068016821F008010160206877
:1015B000016829430160012084F83900002070BDD2
:1015C00008B50068A0F18041B1F5406112D10A4828
:1015D000016841F008010160006800F00800009017
:1015E000012200213220FFF7CDF8BDE8084032206B
:1015F000FFF7BCB808BD000040380240704700004B
:1016000010B50A4C61880A48B1F5004F06D0002297
:101610002021FFF733F80220608010BD0122202135
:10162000FFF72CF84FF40040608010BD0000002050
:10163000001002407047704710B5044622681068D9
:10164000D168526900F00F03002B0AD110F0200F6F
:1016500007D011F0200F04D02046BDE8104000F064
:101660002EBE002B6BD002F0010301F4907C53EAF4
:101670000C0364D010F0010F06D011F4807F03D06A
:10168000E36B43F00103E36310F0040F06D012F0A4
:10169000010F03D0E36B43F00203E36310F0020F8A
:1016A00006D012F0010F03D0E36B43F00403E363B1
:1016B00010F0080F06D012F0010F03D0E26B42F0D9
:1016C0000802E263E26B002A2ED010F0200F05D052
:1016D00011F0200F02D0204600F0F1FD2068406993
:1016E000C0F38010E16B01F00801084321D02046CF
:1016F00000F0CAFD2068416911F0400F15D0416922
:1017000021F040014161606B58B118490165606B7F
:10171000FEF78EFE002807D0606B016DBDE810401B
:1017200008472046FFF787FF10BD2046FFF783FFDD
:1017300010BD2046FFF77FFF0020E06310BD10F0D2
:10174000800F07D011F0800F04D02046BDE8104074
:1017500000F0A0BF10F0400FF0D011F0400FEDD01E
:101760002046BDE8104000F09DBD00007922000831
:1017700070B50446002C04D094F83900002510B14F
:1017800006E0012070BD84F83850204600F022F8B1
:10179000242084F839002068C16821F40051C16018
:1017A000204600F0D5FD2068016921F490410161D7
:1017B0002068416921F02A0141612068C16841F433
:1017C0000051C160E563202084F8390084F83A00B4
:1017D000002070BD00B587B00D49884216D10D4874
:1017E000016841F002010160006800F00200019010
:1017F000C020029002200390012004900320059055
:101800000720069002A90448FEF734FE07B000BD89
:1018100028010020303802400004024090F83A309D
:10182000202B01D002207047D1B1CAB190F83830D6
:10183000012B17D081628285C2850021C1632222DB
:1018400080F83A2080F8381001684A6942F00102B5
:101850004A610068C16841F49071C160002070471E
:1018600001207047022070472DE9F04104462648C8
:10187000264E0027844228D17088254C20B1A0F53F
:101880007F40FF380FD106E001207080278021487B
:10189000FFF7E4FC07E04FF400711F48FEF7EAFE93
:1018A0004FF4004070801D4800781D4922888854FC
:1018B0002088401C2080174800684762BDE8F0413E
:1018C000012216491048FFF7A9BF164884420FD1DC
:1018D000154D2878AA280BD1E87B2F280CD10D2193
:1018E000681CFEF766FDA97B884203D00F4807708D
:1018F000BDE8F081B06C80472046BDE8F041102281
:101900000949FFF78BBF000098010020000000206C
:1019100054000020EC000020001C02405600002073
:10192000D801002028010020680100208801002043
:101930002DE9F84304460D4691461E4694F83900B9
:10194000202802D00220BDE8F8834DB3B9F1000F82
:1019500026D094F83800012825D0012084F83800DA
:101960000027E763212084F83900FEF78FFE8046C8
:10197000A4F82490A4F82690E08CA0B3E08C401E3C
:10198000E084A068B0F5805F10D04346002280213B
:101990002046009600F0CEFEF0B10320BDE8F883AB
:1019A0000120BDE8F8830220BDE8F8834346002209
:1019B00080212046009600F0BDFE10B10320BDE856
:1019C000F88328882168C0F308004860206908B1BE
:1019D0006D1C05E0AD1C03E0216815F8010B4860A3
:1019E000E08C0028CAD143460022402120460096C0
:1019F00000F0A0FE10B10320BDE8F883202084F899
:101A0000390084F838700020BDE8F88390F8393048
:101A1000202B01D002207047A9B1A2B190F8383034
:101A2000012B12D001628284C2840021C163212271
:101A300080F8392080F838100068C16841F08001D2
:101A4000C160002070470120704702207047704736
:101A5000FEE700009FED181A00EE900AF8EEE00A8B
:101A600070EE600A10EE900AB0F17C5F06DA10EEBC
:101A7000900AB0F13F4F01D2F0EE410A91ED040A15
:101A8000D1ED051A486820EE200A01EE100A886898
:101A9000B8EEC11A01EEC10AD1ED061A01EE100A24
:101AA000B8EEC11A01EE810A48688860FDEEE00ACE
:101AB00010EE900A486070470000000014489FED47
:101AC000130A80ED040A9FED130A80ED050A9FEDCD
:101AD000120A80ED060A002141608160DFED0F0AE5
:101AE000C0ED000AC160DFED0E0A2430C0ED040A2B
:101AF000DFED0C0AC0ED050A80ED060A4160816049
:101B0000B3EE0E0A80ED000AC1607047295C8F3D7C
:101B100058000020ACC527370000000000803B467D
:101B2000CDCCCC3D17B75138F0B587B0234801680C
:101B300041F080010160016801F0800101910168BC
:101B400041F010010160016801F01001019101688C
:101B500041F010010160006800F010000190184F82
:101B600000224FF400713846FEF788FD154E002222
:101B700020213046FEF782FD002240213046FEF74C
:101B80007DFD70150290012403940225059502A99C
:101B90003846FEF76FFC202102910394059502A9B7
:101BA0003046FEF767FC402002900394059502A999
:101BB0003046FEF75FFC07B0F0BD00003038024051
:101BC000001C02400010024030B4FF239C464A1E15
:101BD000D2B20ED3094C04F5807510F8011B81EACE
:101BE0000C0114F801C08CEA030C6B5C521ED2B2DB
:101BF000F3D230BC4CEA0320704700005C29000897
:101C000010B50B4C207003206070080AA070E170C2
:101C1000100A2071062162712046FFF7D5FFA071DE
:101C2000000A0821E0712046BDE8104000F066BDC2
:101C3000D802002070B586B000221F48016841F02C
:101C400001010160016801F001010091016841F0AA
:101C500002010160016801F002010091016841F098
:101C600004010160006800F00400009013484FF484
:101C700000550560124910260E6012482024846128
:101C80000C6001941121029103920221049101A997
:101C9000FEF7F0FB01940C4C01A92046FEF7EAFB8D
:101CA000019501A90948FEF7E5FB019601A9204627
:101CB000FEF7E0FB06B070BD303802401808024065
:101CC00018040240000002400004024000080240E4
:101CD00010B5022201212520FEF754FDBDE8104079
:101CE0002520FEF743BD000008B50021104802681A
:101CF00042F010020260006800F0100000900E48F0
:101D00000C4A02604FF4E13242608160C1600161BF
:101D10000C2242618161C161FFF72AFD074910224F
:101D2000A1F14000FFF77AFDBDE80840FFF7D0BF02
:101D300044380240001001402801002068010020C2
:101D4000FEE7704770477047F0B587B0002620481F
:101D5000016841F480210160006800F48020019056
:101D60001C48016841F002010160016801F00201B4
:101D70000191016841F080010160006800F080007D
:101D800001904FF48060029002240394059407258B
:101D90000695114F02A93846FEF76CFBA10202918D
:101DA00003940496069502A93846FEF763FB0B4D93
:101DB0000022E1012846FEF761FCE10102910121C8
:101DC0000391059402A92846FEF754FB07B0F0BD25
:101DD000403802403038024000040240001C0240FB
:101DE00010B5FFF7B1FF1348114901604FF41641D8
:101DF000416000218160C16001610C22426181610A
:101E0000C161FFF7B5FC012211462720FEF7BAFC9D
:101E10002720FEF7ABFC00224FF480710648FEF746
:101E20002DFCBDE81040012204490248FFF7F6BC32
:101E30000048004098010020001C0240560000208D
:101E40007047000003490120C8600022C103024816
:101E5000FEF714BC000000200014024010B5FEF78D
:101E60001BFCBDE81040FFF7F3B9000030B593B09C
:101E700000252348016841F080510160006800F0AE
:101E8000805000901F48016841F480410160006863
:101E900000F4804000900120069000040790022486
:101EA0000C9480010D9008200E904FF4A8700F90B4
:101EB00010940720119006A8FEF720FE0F20019035
:101EC000029403954FF4A0500490E0020590052180
:101ED00001A8FEF79DFCFEF793FDFEF797FD4FF47A
:101EE0007A71B0FBF1F0FFF79FF90420FFF726F8B5
:101EF00000221146501EFEF745FC13B030BD000015
:101F000040380240007000400F48016841F4700101
:101F100001600E48016841F0010101600C4A002196
:101F20001160026822F4102222F080720260031D08
:101F3000084A1A60026822F48022026006480160A2
:101F4000064958060860704788ED00E000380240F6
:101F500008380240103000240C38024008ED00E040
:101F60000148FFF711BA0000EC000020F0B402684D
:101F7000264BDFF89CC0274D274E284C98420AD0AC
:101F8000B0F1804F07D0604505D0A84203D0B042E1
:101F900001D0A04203D122F070024F683A43984228
:101FA0001ED0B0F1804F1BD0604519D0A84217D089
:101FB000B04215D0A04213D0A0F1804CBCF5A03C9B
:101FC0000ED0BCF5806C0BD0BCF5806C08D01CF535
:101FD000983C05D0BCF5806C02D0BCF5806C05D176
:101FE00022F44072D1F80CC04CEA020202608A6806
:101FF000C2620A688262984201D0A04201D1096996
:10200000016301214161F0BC704700000000014004
:102010000004004000080040000C004000040140A3
:10202000D0F808C02CF47F4C42EA0322114341EA65
:102030000C0181607047826822F07002114341F008
:1020400007018160704710B4026A22F00102026247
:10205000036A4268D0F818C02CF0700C2CF0030C06
:102060000C6844EA0C0C23F002038C682343A0F1B3
:102070008044B4F5803402D0B4F580640DD123F0EF
:102080000803CC68234323F0040322F4807222F473
:1020900000724C6922438C6922434260C0F818C028
:1020A00049684163036210BC704710B4026A22F0B1
:1020B00010020262036A4268D0F818C02CF4E04CA7
:1020C0002CF4407C0C684CEA042C23F020038C6830
:1020D00043EA0413A0F18044B4F5803402D0B4F58F
:1020E000806410D123F08003CC6843EA041323F00A
:1020F000400322F4806222F400624C6942EA8402C6
:102100008C6942EA84024260C0F818C04968816361
:10211000036210BC704710B4026A22F4807202623B
:10212000036A4268D0F81CC02CF0700C2CF0030C31
:102130000C6844EA0C0C23F400738C6843EA042313
:10214000A0F18044B4F5803402D0B4F5806410D19D
:1021500023F40063CC6843EA042323F4806322F46D
:10216000805222F400524C6942EA04128C6942EA1D
:1021700004124260C0F81CC04968C163036210BC0D
:10218000704710B4026A22F480520262D0F820C074
:102190004268C36923F4E04323F440730C6843EAC4
:1021A00004232CF4005C8C684CEA043CA0F18044CD
:1021B000B4F5803402D0B4F5806404D122F48042B6
:1021C0004C6942EA84124260C36149680164C0F804
:1021D00020C010BC7047036AD0F820C02CF0010C5E
:1021E000C0F820C0D0F818C02CF0F00C4CEA021255
:1021F00023F00A031943826101627047036A23F0E6
:1022000010030362D0F818C0036A2CF4704C4CEA37
:10221000023223F0A00343EA011182610162704798
:1022200010B50021124C55226254491CC9B2102924
:10223000FAD301680F484160AA212170882161709A
:102240000179A1704179E17081792171C079607162
:102250000D21601CFEF7ADF8A0732F20E073044938
:10226000BDE810401022A1F15000FFF7CFBB0000E5
:10227000780100208801002010B5806B0021C18505
:10228000C184FFF7D8F910BD0168CA6822F49072C2
:10229000CA6001684A6922F001024A61202180F87F
:1022A0003A10704710B50168CA6822F04002CA604F
:1022B000202180F83910FFF7CAFB002010BD10B5AF
:1022C00090F83A10222901D0022010BD8168B1F5A2
:1022D000805F11D0016919B30168496801F07F027C
:1022E000816A4B1C83620A70C18D491E0904090C66
:1022F000C1851CD0002010BD816A02693AB1026814
:102300005268D2B20A80816A491C8162ECE7026895
:102310005268C2F308020A80816A891C8162E3E77D
:1023200001684A68816A4B1C83620A70DCE70168B5
:10233000CA6822F49072CA6001684A6922F00102F8
:102340004A61202180F83A10FFF78EFA002010BD74
:102350002DE9F04104462068016921F44051E2680A
:10236000114301612068C16821F4037121F4144113
:102370002369A268D4F81CC01A43636943EA0C03BA
:102380001A431143C1602068416921F44071A26978
:1023900011434161E069BC4ABC49BD4D3226B0F5EC
:1023A000004F5ED02068884202D0904240F01281F7
:1023B000FEF748FB00EBC00101EB001061688900EB
:1023C000B0FBF1F7FEF73EFB00EBC00101EB0010A4
:1023D00061688900B0FBF1F0A5FB001040096FF0C7
:1023E0001801484307EB800006EB0010A5FB001026
:1023F000400900F0F007FEF725FB00EBC00101EB00
:10240000001061688900B0FBF1F0A5FB00104009E5
:1024100007EB0017FEF716FB00EBC00101EB001005
:1024200061688900B0FBF1F8FEF70CFB00EBC0011E
:1024300001EB001061688900B0FBF1F0A5FB001012
:1024400040096FF01801484308EB800006EB0010CC
:10245000A5FB00102168C0F3431038448860BDE834
:10246000F0812068884201D0904259D1FEF7EAFA03
:1024700000EBC00101EB001061684900B0FBF1F016
:10248000A5FB001040090701FEF7DCFA00EBC001D4
:1024900001EB001061684900B0FBF1F8FEF7D2FAD9
:1024A00000EBC00101EB001061684900B0FBF1F0E6
:1024B000A5FB001040096FF01801484308EB8000AD
:1024C00006EBC000A5FB0010400900F0F80007EB88
:1024D0004007FEF7B7FA00EBC00101EB001061689E
:1024E0004900B0FBF1F8FEF7ADFA00EBC00101EBDB
:1024F000001061684900B0FBF1F0A5FB0010400935
:102500006FF01801484308EB800006EBC000A5FB04
:1025100000102168C0F3421038448860BDE8F081A3
:10252000FEF77AFA00EBC00101EB00106168490088
:10253000B0FBF1F0A5FB001040090701FEF76CFAB3
:1025400000EBC00101EB001061684900B0FBF1F83D
:10255000FEF762FA00EBC00101EB00106168490070
:10256000B0FBF1F0A5FB001040096FF018014843E3
:1025700008EB800006EBC000A5FB0010400900F04E
:10258000F80007EB4007FEF747FA00EBC00101EB4C
:10259000001061684900B0FBF1F8FEF73DFA00EB6E
:1025A000C00101EB001061684900B0FBF1F0A5FB30
:1025B000001040096FF01801484308EB800006EB5B
:1025C000C000A5FB00102168C0F3421038448860A9
:1025D000BDE8F081FEF720FA00EBC00101EB00102E
:1025E00061688900B0FBF1F7FEF716FA00EBC00155
:1025F00001EB001061688900B0FBF1F0A5FB001051
:1026000040096FF01801484307EB800006EB00100B
:10261000A5FB0010400900F0F007FEF7FDF900EB04
:10262000C00101EB001061688900B0FBF1F0A5FB6F
:102630000010400907EB0017FEF7EEF900EBC001B0
:1026400001EB001061688900B0FBF1F8FEF7E4F9D6
:1026500000EBC00101EB001061688900B0FBF1F0F4
:10266000A5FB001040096FF01801484308EB8000FB
:1026700006EB0010A5FB00102168C0F3431038449E
:102680008860BDE8F08100000014014000100140A6
:102690001F85EB5190F83910212901D00220704795
:1026A0008168B1F5805F0CD0016A4A1C0262026841
:1026B00009785160C18C491E0904090CC18410D0ED
:1026C00019E0016A02680988C1F3080151600169D3
:1026D00019B1016A491C0162ECE7016A891C0162B7
:1026E000E8E70168CA6822F08002CA600068C16831
:1026F00041F04001C16000207047000070B5054600
:102700000E460A4C012211022046FDF7B7FF4FF694
:10271000FF73324629460648FFF70AF90022A11541
:102720002046BDE87040FDF7A9BF0000001C024034
:10273000980100202DE9F0410446069D8846174681
:102740001E462068006838EA000020D00020B84209
:1027500027D1B5F1FF3F1CD025B1FDF797FF801BB6
:10276000A84216D92068C16821F4D071C1602068E0
:10277000416921F001014161202084F8390084F889
:102780003A00002084F838000320BDE8F0810120E1
:10279000DDE72068006838EA000005D00020B84274
:1027A000D7D00020BDE8F0810120F8E70148FEF70E
:1027B00043BF0000280100200148FEF73DBF000094
:1027C00098010020FEE702E008C8121F08C1002A95
:1027D000FAD170477047002001E001C1121F002AA2
:1027E000FBD17047002000BF401C80B23228FAD3D2
:1027F00070470000FDF758FFFFF738FBFDF7B6FD07
:10280000FDF7F0FCFDF7E4FDFFF78EF9FFF756F951
:10281000FFF79AFAFFF7E4FAFFF766FA3F4908680C
:10282000C26842F00202C2600868C26842F0010257
:10283000C2600A6840F2EE2050630A6840F2D66037
:10284000D062C860364C002666803648A064FFF728
:1028500035F9DFF8D4800220A8F80400A08881B2FE
:102860000120FDF71FFDDFF8C4B0314F314D4FF0AF
:10287000010AA8F14809DBF800002F49A1FB00215B
:102880000909494201EB810110EB810008D1668002
:10289000B8F804200A210120FFF7B2F984F800A05B
:1028A00060880228E7D128780128E4D1207801281F
:1028B0000FD1A879697940EA01212048C1612879BE
:1028C000E97840EA0120C9F82000D9F82000616CBD
:1028D00008603888284410F8020C3988294411F817
:1028E000011C40EA0120E0803888801EC1B21148F6
:1028F000FFF76AF9E18888420ED1687810F0800FFE
:102900000AD00F4C4FF400712046FDF7B3FE4FF490
:10291000FA70FDF79FFDF5E76680ACE7EC0000205C
:1029200000000020B1020008A00000204C000020A0
:1029300054000020D8010020CDCCCCCC7C0000205D
:10294000001C02400000000000000000010203041F
:1029500006070809000000000102030400C18140CD
:1029600001C0804101C0804100C1814001C080415F
:1029700000C1814000C1814001C0804101C080414F
:1029800000C1814000C1814001C0804100C181403F
:1029900001C0804101C0804100C1814001C080412F
:1029A00000C1814000C1814001C0804100C181401F
:1029B00001C0804101C0804100C1814000C181400F
:1029C00001C0804101C0804100C1814001C08041FF
:1029D00000C1814000C1814001C0804101C08041EF
:1029E00000C1814000C1814001C0804100C18140DF
:1029F00001C0804101C0804100C1814000C18140CF
:102A000001C0804101C0804100C1814001C08041BE
:102A100000C1814000C1814001C0804100C18140AE
:102A200001C0804101C0804100C1814001C080419E
:102A300000C1814000C1814001C0804101C080418E
:102A400000C1814000C1814001C0804100C181407E
:102A500001C0804101C0804100C1814000C0C1016E
:102A6000C30302C2C60607C705C5C404CC0C0DCDFE
:102A70000FCFCE0E0ACACB0BC90908C8D81819D96E
:102A80001BDBDA1A1EDEDF1FDD1D1CDC14D4D5159E
:102A9000D71716D6D21213D311D1D010F03031F18E
:102AA00033F3F23236F6F737F53534F43CFCFD3DBE
:102AB000FF3F3EFEFA3A3BFB39F9F83828E8E929AE
:102AC000EB2B2AEAEE2E2FEF2DEDEC2CE42425E55E
:102AD00027E7E62622E2E323E12120E0A06061A1CE
:102AE00063A3A26266A6A767A56564A46CACAD6D7E
:102AF000AF6F6EAEAA6A6BAB69A9A86878B8B979EE
:102B0000BB7B7ABABE7E7FBF7DBDBC7CB47475B51D
:102B100077B7B67672B2B373B17170B0509091510D
:102B20009353529296565797559594549C5C5D9D3D
:102B30005F9F9E5E5A9A9B5B99595898884849892D
:102B40004B8B8A4A4E8E8F4F8D4D4C8C44848545DD
:102B50008747468682424383418180407C2B000820
:102B60000000002058000000C6270008D42B0008F1
:102B70005800002080130000D62700080000000045
:102B8000008000000000000000000000280A000093
:102B90000000000000000000000000000000000035
:102BA0000000000000000000000000000000000025
:102BB000680000206C0000207000002058000020F9
:102BC0007800002000000000000000000024F40055
:042BD0000000000001
:040000050800018965
:00000001FF
